:020000040800F2
:100000000050002049130008251100082B1100089A
:1000100031110008371100083D11000800000000F0
:100020000000000000000000000000004311000874
:100030004F110008000000005B1100086711000864
:100040009113000891130008911300089113000800
:1000500091130008911300089113000891130008F0
:1000600091130008911300089113000891130008E0
:1000700091130008911300089113000891130008D0
:1000800091130008911300089113000891130008C0
:1000900091130008911300089113000891130008B0
:1000A00091130008751100089113000891130008BE
:1000B0009113000891130008911300089113000890
:1000C0009113000891130008911300089113000880
:1000D0009113000891130008911300089113000870
:1000E000911300089113000891130008000000000C
:1000F0000000000000000000000000000000000000
:0C01000000000000000000005FF808F1A3
:1001100010B5054C237833B9044B13B10448AFF341
:1001200000800123237010BD70000020000000003B
:10013000943D000808B5034B1BB103490348AFF3D6
:10014000008008BD0000000074000020943D0008FD
:10015000034613F8012B002AFBD1181A0138704707
:1001600081F0004102E000BF83F0004330B54FEA68
:1001700041044FEA430594EA050F08BF90EA020FD5
:100180001FBF54EA000C55EA020C7FEA645C7FEA68
:10019000655C00F0E2804FEA5454D4EB5555B8BF8B
:1001A0006D420CDD2C4480EA020281EA030382EAFC
:1001B000000083EA010180EA020281EA0303362D8E
:1001C00088BF30BD11F0004F4FEA01314FF4801C61
:1001D0004CEA113102D0404261EB410113F0004F73
:1001E0004FEA03334CEA133302D0524263EB43032A
:1001F00094EA050F00F0A780A4F10104D5F1200EC8
:100200000DDB02FA0EFC22FA05F2801841F1000122
:1002100003FA0EF2801843FA05F359410EE0A5F1F6
:1002200020050EF1200E012A03FA0EFC28BF4CF027
:10023000020C43FA05F3C01851EBE37101F00045DD
:1002400007D54FF0000EDCF1000C7EEB00006EEBEA
:100250000101B1F5801F1BD3B1F5001F0CD3490874
:100260005FEA30004FEA3C0C04F101044FEA4452CB
:1002700012F5800F80F09A80BCF1004F08BF5FEA52
:10028000500C50F1000041EB045141EA050130BD32
:100290005FEA4C0C404141EB0101013C28BFB1F544
:1002A000801FE9D291F0000F04BF01460020B1FA8F
:1002B00081F308BF2033A3F10B03B3F120020CDA62
:1002C0000C3208DD02F1140CC2F10C0201FA0CF040
:1002D00021FA02F10CE002F11402D8BFC2F1200CA5
:1002E00001FA02F120FA0CFCDCBF41EA0C0190405B
:1002F000E41AA2BF01EB0451294330BD6FEA0404A4
:100300001F3C1CDA0C340EDC04F11404C4F120028E
:1003100020FA04F001FA02F340EA030021FA04F3A0
:1003200045EA030130BDC4F10C04C4F1200220FAF7
:1003300002F001FA04F340EA0300294630BD21FA35
:1003400004F0294630BD94F0000F83F4801306BFFB
:1003500081F480110134013D4EE77FEA645C18BFEF
:100360007FEA655C29D094EA050F08BF90EA020F86
:1003700005D054EA000C04BF1946104630BD91EA7E
:10038000030F1EBF0021002030BD5FEA545C05D181
:100390004000494128BF41F0004130BD14F58004C0
:1003A0003CBF01F5801130BD01F0004545F0FE4134
:1003B00041F470014FF0000030BD7FEA645C1ABF69
:1003C000194610467FEA655C1CBF0B46024650EAA0
:1003D000013406BF52EA033591EA030F41F40021CC
:1003E00030BD00BF90F0000F04BF0021704730B552
:1003F0004FF4806404F132044FF000054FF0000127
:1004000050E700BF90F0000F04BF0021704730B5E7
:100410004FF4806404F1320410F0004548BF4042BC
:100420004FF000013EE700BF42004FEAE2014FEA11
:1004300031014FEA02701FBF12F07F4393F07F4FEC
:1004400081F06051704732F07F4208BF704793F0EF
:100450007F4F04BF41F40021704730B54FF4607402
:1004600001F0004521F000411CE700BF50EA010205
:1004700008BF704730B54FF000050AE050EA0102AE
:1004800008BF704730B511F0004502D5404261EB1E
:1004900041014FF4806404F132045FEA915C3FF45F
:1004A000D8AE4FF003025FEADC0C18BF03325FEAFC
:1004B000DC0C18BF033202EBDC02C2F1200300FAAD
:1004C00003FC20FA02F001FA03FE40EA0E0021FAD2
:1004D00002F11444BDE600BF70B54FF0FF0C4CF4C0
:1004E000E06C1CEA11541DBF1CEA135594EA0C0F72
:1004F00095EA0C0F00F0DEF82C4481EA030621EAAD
:100500004C5123EA4C5350EA013518BF52EA0335E7
:1005100041F4801143F4801338D0A0FB02CE4FF099
:100520000005E1FB02E506F00042E0FB03E54FF0C9
:100530000006E1FB03569CF0000F18BF4EF0010EC1
:10054000A4F1FF04B6F5007F64F5407404D25FEABD
:100550004E0E6D4146EB060642EAC62141EA555170
:100560004FEAC52040EA5E504FEACE2EB4F1FD0CB2
:1005700088BFBCF5E06F1ED8BEF1004F08BF5FEA30
:10058000500E50F1000041EB045170BD06F00046E2
:1005900046EA010140EA020081EA0301B4EB5C048F
:1005A000C2BFD4EB0C0541EA045170BD41F4801187
:1005B0004FF0000E013C00F3AB8014F1360FDEBFAC
:1005C000002001F0004170BDC4F10004203C35DA88
:1005D0000C341BDC04F11404C4F1200500FA05F30B
:1005E00020FA04F001FA05F240EA020001F00042AC
:1005F00021F0004110EBD37021FA04F642EB060122
:100600005EEA430E08BF20EAD37070BDC4F10C044B
:10061000C4F1200500FA04F320FA05F001FA04F20F
:1006200040EA020001F0004110EBD37041F10001FB
:100630005EEA430E08BF20EAD37070BDC4F1200506
:1006400000FA05F24EEA020E20FA04F301FA05F26E
:1006500043EA020321FA04F001F0004121FA04F216
:1006600020EA020000EBD3705EEA430E08BF20EAE6
:10067000D37070BD94F0000F0FD101F00046400020
:1006800041EB010111F4801F08BF013CF7D041EAA2
:10069000060195F0000F18BF704703F000465200A6
:1006A00043EB030313F4801F08BF013DF7D043EA77
:1006B0000603704794EA0C0F0CEA135518BF95EA2D
:1006C0000C0F0CD050EA410618BF52EA4306D1D1B4
:1006D00081EA030101F000414FF0000070BD50EAD3
:1006E000410606BF1046194652EA430619D094EA5D
:1006F0000C0F02D150EA013613D195EA0C0F05D147
:1007000052EA03361CBF104619460AD181EA03019A
:1007100001F0004141F0FE4141F470014FF0000052
:1007200070BD41F0FE4141F4780170BD70B54FF0ED
:10073000FF0C4CF4E06C1CEA11541DBF1CEA13556D
:1007400094EA0C0F95EA0C0F00F0A7F8A4EB05044F
:1007500081EA030E52EA03354FEA013100F0888046
:100760004FEA03334FF0805545EA131343EA12630F
:100770004FEA022245EA111545EA10654FEA0026C4
:100780000EF000419D4208BF964244F1FD0404F57D
:10079000407402D25B084FEA3202B61A65EB0305D9
:1007A0005B084FEA32024FF480104FF4002CB6EB96
:1007B000020E75EB030E22BFB61A754640EA0C0016
:1007C0005B084FEA3202B6EB020E75EB030E22BF56
:1007D000B61A754640EA5C005B084FEA3202B6EB97
:1007E000020E75EB030E22BFB61A754640EA9C0056
:1007F0005B084FEA3202B6EB020E75EB030E22BF26
:10080000B61A754640EADC0055EA060E18D04FEAE3
:10081000051545EA16754FEA06164FEAC30343EA83
:1008200052734FEAC2025FEA1C1CC0D111F4801F50
:100830000BD141EA00014FF000004FF0004CB6E749
:1008400011F4801F04BF01430020B4F1FD0C88BFE8
:10085000BCF5E06F3FF6AFAEB5EB030C04BFB6EBF3
:10086000020C5FEA500C50F1000041EB045170BDE6
:100870000EF0004E4EEA113114EB5C04C2BFD4EB13
:100880000C0541EA045170BD41F480114FF0000E97
:10089000013C90E645EA060E8DE60CEA135594EA13
:1008A0000C0F08BF95EA0C0F3FF43BAF94EA0C0F16
:1008B0000AD150EA01347FF434AF95EA0C0F7FF48B
:1008C00025AF104619462CE795EA0C0F06D152EADF
:1008D00003353FF4FDAE1046194622E750EA4106C3
:1008E00018BF52EA43067FF4C5AE50EA41047FF4D4
:1008F0000DAF52EA43057FF4EBAE12E74A0011D286
:1009000012F5001211D20DD56FF47873B3EB625269
:100910000ED44FEAC12343F0004343EA505323FA75
:1009200002F070474FF00000704750EA013002D1EA
:100930004FF0FF3070474FF00000704780B584B033
:1009400000AF00F027FD00F037F800F0BBF900F031
:10095000C1F800F041F900F08BF900F07DF800F0EB
:10096000EFF8114800F04CFC00F066FC0346FB7306
:10097000FA7B3B1D0D49184602F0D2FD3B1D18467F
:10098000FFF7E6FB03469AB2391D4FF0FF330848E4
:1009900002F029FC4FF47A7000F02EFD4FF4005164
:1009A000044801F0F2F9DFE7C0010020AC3D000887
:1009B000240100200010014080B594B000AF07F181
:1009C000280328220021184602F0A2FD07F1140393
:1009D00000221A605A609A60DA601A613B1D002298
:1009E0001A605A609A60DA600223BB620123BB631B
:1009F0001023FB6300237B6407F12803184601F0F2
:100A0000DDF90346002B01D000F0DCF90F237B61F8
:100A10000023BB610023FB6100233B6200237B6258
:100A200007F114030021184601F048FC0346002B8F
:100A300001D000F0C7F902237B600023FB603B1D5F
:100A4000184601F005FE0346002B01D000F0BAF96C
:100A500000BF5037BD4680BD80B584B000AF3B1DA0
:100A600000221A605A609A60184B194A1A60174B94
:100A700000229A60154B00221A73144B00221A753B
:100A8000124B4FF46022DA61104B00225A600F4B78
:100A900001221A610D4800F0D3FC0346002B01D05F
:100AA00000F090F909237B600123BB600023FB6009
:100AB0003B1D1946054800F09BFD0346002B01D065
:100AC00000F080F900BF1037BD4680BDF400002063
:100AD0000024014080B500AF174B184A1A60164B2E
:100AE0004FF482725A60144B00229A60124B00221B
:100AF000DA60114B00221A610F4B00225A610E4B33
:100B00004FF400729A610C4B0022DA610A4B00220A
:100B10001A62094B00225A62074B00229A62064B66
:100B20000A22DA62044801F049FE0346002B01D094
:100B300000F048F900BF80BD68010020003001408E
:100B400080B586B000AF07F1080300221A605A6032
:100B50009A60DA603B4600221A605A601D4B4FF0E3
:100B600080421A601B4B07225A601A4B00229A607F
:100B7000184B4FF6FF72DA60164B00221A61154BC4
:100B800000229A61134801F09DFE0346002B01D01C
:100B900000F018F94FF48053BB6007F108031946C1
:100BA0000C4802F083F80346002B01D000F00AF94C
:100BB00000233B6000237B603B461946054802F05A
:100BC00055FA0346002B01D000F0FCF800BF18379F
:100BD000BD4680BDC001002080B586B000AF07F1E2
:100BE000080300221A605A609A60DA603B460022CD
:100BF0001A605A601C4B1D4A1A601B4B07225A6030
:100C0000194B10229A60184BFF22DA60164B002213
:100C10001A61154B00229A61134801F053FE0346F6
:100C2000002B01D000F0CEF84FF48053BB6007F1E9
:100C3000080319460C4802F039F80346002B01D08E
:100C400000F0C0F800233B6000237B603B46194660
:100C5000054802F00BFA0346002B01D000F0B2F871
:100C600000BF1837BD4680BDAC0000200004004026
:100C700080B500AF114B124A1A60104B4FF4165258
:100C80005A600E4B00229A600C4B0022DA600B4B2C
:100C900000221A61094B0C225A61084B00229A610A
:100CA000064B0022DA61054802F050FA0346002B99
:100CB00001D000F087F800BF80BD00BF24010020F4
:100CC0000038014080B588B000AF07F11003002262
:100CD0001A605A609A60DA602E4B9B692D4A43F085
:100CE000100393612B4B9B6903F01003FB60FB68BF
:100CF000284B9B69274A43F004039361254B9B696A
:100D000003F00403BB60BB68224B9B69214A43F09C
:100D1000080393611F4B9B6903F008037B607B68AA
:100D200000224FF400511C4801F017F800224FF444
:100D300084711A4801F011F84FF400533B6101230C
:100D40007B610023BB610223FB6107F1100319469D
:100D5000114800F067FE4FF484733B6101237B610F
:100D60000023BB610223FB6107F1100319460B4806
:100D700000F058FE10233B6100237B610023BB6120
:100D800007F110031946054800F04CFE00BF20375C
:100D9000BD4680BD00100240001001400008014027
:100DA00080B582B000AF78607B681B68044A9342CC
:100DB00001D100F005FB00BF0837BD4680BD00BF74
:100DC000002C014080B400AF72B600BFFEE7000007
:100DD00080B485B000AF154B9B69144A43F0010302
:100DE0009361124B9B6903F00103BB60BB680F4B1F
:100DF000DB690E4A43F08053D3610C4BDB6903F08F
:100E000080537B607B680A4B5B68FB60FB6823F068
:100E1000E063FB60FB6843F00073FB60044AFB681F
:100E2000536000BF1437BD4680BC704700100240BD
:100E30000000014080B588B000AF786007F1100372
:100E400000221A605A609A60DA607B681B68144A54
:100E5000934221D1134B9B69124A43F4007393616F
:100E6000104B9B6903F40073FB60FB680D4B9B699F
:100E70000C4A43F0080393610A4B9B6903F0080393
:100E8000BB60BB6802233B6103237B6107F1100356
:100E90001946054800F0C6FD00BF2037BD4680BD9D
:100EA0000024014000100240000C014080B588B0D1
:100EB00000AF786007F1100300221A605A609A6050
:100EC000DA607B681B681B4A93422FD11A4B9B69DF
:100ED000194A43F480539361174B9B6903F4805381
:100EE000FB60FB68144B9B69134A43F00403936156
:100EF000114B9B6903F00403BB60BB68A0233B61FB
:100F000002237B610323FB6107F1100319460B48A1
:100F100000F088FD40233B6100237B610023BB611F
:100F200007F110031946054800F07CFD00BF20378B
:100F3000BD4680BD00300140001002400008014065
:100F400080B58AB000AF786007F1180300221A60FC
:100F50005A609A60DA607B681B68B3F1804F0CD1ED
:100F60001C4BDB691B4A43F00103D361194BDB695E
:100F700003F001037B617B6928E07B681B68164AEC
:100F8000934223D1134BDB69124A43F00203D3612E
:100F9000104BDB6903F002033B613B690D4B9B691E
:100FA0000C4A43F0080393610A4B9B6903F0080362
:100FB000FB60FB680123BB610223FB6102237B62B0
:100FC00007F118031946054800F02CFD00BF28372B
:100FD000BD4680BD0010024000040040000C0140EE
:100FE00080B588B000AF786007F1100300221A6066
:100FF0005A609A60DA607B681B681C4A934231D160
:101000001B4B9B691A4A43F480439361184B9B69BD
:1010100003F48043FB60FB68154B9B69144A43F063
:1010200004039361124B9B6903F00403BB60BB682C
:101030004FF400733B6102237B610323FB6107F1E3
:10104000100319460B4800F0EDFC4FF480633B6140
:1010500000237B610023BB6107F11003194605489B
:1010600000F0E0FC00BF2037BD4680BD00380140E5
:10107000001002400008014080B58CB000AF7860DD
:101080000023FB620023BB6200227968192000F074
:101090009EFC192000F0B7FC1E4B9B691D4A43F4CF
:1010A000006393611B4B9B6903F40063FB60FB6867
:1010B00007F1100207F114031146184601F07AFAFD
:1010C00001F064FAF862FB6A134AA2FB03239B0C4B
:1010D000013BBB62114B124A1A60104B40F2E732DF
:1010E000DA600E4ABB6A53600C4B00221A610B4B4C
:1010F00000229A60094801F0E5FB0346002B04D169
:10110000064801F079FC034600E001231846303719
:10111000BD4680BD0010024083DE1B430C02002050
:10112000002C014080B400AFFEE780B400AFFEE7C2
:1011300080B400AFFEE780B400AFFEE780B400AF3C
:10114000FEE780B400AF00BFBD4680BC704780B4EE
:1011500000AF00BFBD4680BC704780B400AF00BF89
:10116000BD4680BC704780B400AF00BFBD4680BCA8
:101170007047000080B500AF024801F08FFC00BF4F
:1011800080BD00BF0C02002080B586B000AF786043
:10119000144A154BD31A7B617B693B61134B1B6867
:1011A000002B02D1114B124A1A60104B1A687B684F
:1011B00013443A699A4207D202F080F903460C229E
:1011C0001A604FF0FF3309E0084B1B68FB60074BC8
:1011D0001A687B681344054A1360FB681846183781
:1011E000BD4680BD00500020000400008C0000209F
:1011F0007002002080B400AF00BFBD4680BC7047C5
:1012000080B582B000AF7860084A7B681360074BF6
:101210001B68184601F0A6FB00220821044800F0D4
:101220009CFD00BF0837BD4680BD00BFA800002060
:10123000000801400000000098B500AF012208211D
:101240003B4800F08AFD3B4B1B681B6800225A623A
:1012500000BF384B1B681B685B6A092BF9D9002259
:101260000821334800F079FD00F0BCF80346324A0B
:10127000136000BF10212E4800F058FD0346002BDC
:1012800008D12D4B1B6803F10A0400F0ABF80346AC
:101290009C42EFD8274B1B681B685B6A274A136088
:1012A00000F0A0F80346244A136000BF1021204834
:1012B00000F03CFD0346002B08D01F4B1B6803F1D8
:1012C000320400F08FF803469C42EFD8194B1B689C
:1012D0001B685B6A1A4A1360194B1A68174B1B6824
:1012E000D31A1846FFF77EF80FA3D3E90023FFF7C0
:1012F000F3F802460B46104619464FF000024FF035
:101300008043FFF713FA02460B4610461946FFF7D3
:10131000F5FA0346DAB20B4B1A700A4B1B781846E3
:1013200098BD00BFAFF300809CC420B07268A13F9D
:1013300000080140A8000020540200209000002076
:1013400094000020980000200C480D490D4A00230D
:1013500002E0D458C4500433C4188C42F9D30A4A6A
:101360000A4C002301E013600432A242FBD3FFF7D2
:1013700041FF02F0A9F8FFF7E1FA704700000020F2
:1013800070000020183E0008700000206C02002051
:10139000FEE7000080B500AF084B1B68074A43F02A
:1013A00010031360032000F007FB0F20FFF764FE1B
:1013B000FFF70EFD0023184680BD00BF002002404D
:1013C00080B400AF054B1B781A46054B1B681344CD
:1013D000034A136000BFBD4680BC70470800002070
:1013E0005802002080B400AF024B1B681846BD466F
:1013F00080BC70475802002080B584B000AF786090
:10140000FFF7F0FFB8607B68FB60FB68B3F1FF3F5C
:1014100005D00A4B1B781A46FB681344FB6000BFDB
:10142000FFF7E0FF0246BB68D31AFA689A42F7D882
:1014300000BF00BF1037BD4680BD00BF08000020C0
:1014400080B586B000AF78600023FB7500233B6158
:101450000023BB600023FB607B68002B01D10123CC
:10146000BEE07B689B68002B7B689B6A002B09D1E0
:101470007B680022DA627B68002283F82420786887
:10148000FFF7D8FC786800F0ABF90346FB757B6882
:101490009B6A03F01003002B40F09980FB7D002B2A
:1014A00040F095807B689B6A23F4885323F0020305
:1014B00043F002027B689A627B685A687B68DB694A
:1014C0001A437B681B7B5B001343BA681343BB6002
:1014D0007B689B68B3F5807F03D07B689B68012B9A
:1014E00002D14FF4807300E000233A6913433B615B
:1014F0007B681B7D012B19D17B681B7B002B09D1DD
:101500007B689B69013B5A033B69134343F40063C7
:101510003B610BE07B689B6A43F020027B689A6228
:101520007B68DB6A43F001027B68DA627B681B68D8
:101530005B6823F469417B681B683A690A435A6017
:101540007B681B689A68284B13407A681268B968F0
:101550000B4393607B689B68B3F5807F03D07B6807
:101560009B68012B04D17B681B69013B1B05FB6059
:101570007B681B68DB6A23F470017B681B68FA6870
:101580000A43DA627B681B689A68184B1340BA6892
:101590009A420BD17B680022DA627B689B6A23F057
:1015A000030343F001027B689A6218E07B689B6A40
:1015B00023F0120343F010027B689A627B68DB6AB7
:1015C00043F001027B68DA620123FB7507E07B6868
:1015D0009B6A43F010027B689A620123FB75FB7DD6
:1015E00018461837BD4680BDFDF7E1FFFE0E1FFF10
:1015F00080B485B000AF786039600023FB730023AE
:10160000BB607B6893F82430012B01D10223DCE01E
:101610007B68012283F824203B685B68062B1CD87A
:101620007B681B68596B3B685A6813469B001344E0
:10163000053B1F2202FA03F3DB4319403B6818689D
:101640003B685A6813469B001344053B00FA03F2BB
:101650007B681B680A435A633CE03B685B680C2B61
:101660001CD87B681B68196B3B685A6813469B0043
:101670001344233B1F2202FA03F3DB4319403B6868
:1016800018683B685A6813469B001344233B00FAD2
:1016900003F27B681B680A431A631BE07B681B68C4
:1016A000D96A3B685A6813469B001344413B1F228A
:1016B00002FA03F3DB4319403B6818683B685A6839
:1016C00013469B001344413B00FA03F27B681B68FE
:1016D0000A43DA623B681B68092B1CD97B681B68CC
:1016E000D9683B681A6813465B0013441E3B072207
:1016F00002FA03F3DB4319403B6898683B681A68B9
:1017000013465B0013441E3B00FA03F27B681B6820
:101710000A43DA6019E07B681B6819693B681A683C
:1017200013465B001344072202FA03F3DB4319401C
:101730003B6898683B681A6813465B00134400FADC
:1017400003F27B681B680A431A613B681B68102B15
:1017500003D03B681B68112B32D17B681B681D4A84
:10176000934225D17B681B689B6803F40003002B20
:1017700026D17B681B689A687B681B6842F400026C
:101780009A603B681B68102B1AD1134B1B68134AD5
:10179000A2FB03239A0C13469B0013445B00BB601F
:1017A00002E0BB68013BBB60BB68002BF9D107E0DE
:1017B0007B689B6A43F020027B689A620123FB737B
:1017C0007B68002283F82420FB7B18461437BD4633
:1017D00080BC7047002401400000002083DE1B43D2
:1017E00080B584B000AF78600023FB607B681B6825
:1017F0009B6803F00103012B2ED17B681B689A685C
:101800007B681B6822F001029A60FFF7EBFDF8602D
:101810001BE0FFF7E7FD0246FB68D31A022B14D941
:101820007B681B689B6803F00103012B0DD17B686B
:101830009B6A43F010027B689A627B68DB6A43F024
:1018400001027B68DA62012307E07B681B689B6802
:1018500003F00103012BDCD0002318461037BD46EE
:1018600080BD000080B485B000AF78607B6803F075
:101870000703FB600C4BDB68BB60BA684FF6FF03E5
:101880001340BB60FB681A02BB68134343F0BF639D
:1018900043F40033BB60044ABB68D36000BF143715
:1018A000BD4680BC704700BF00ED00E080B400AFD3
:1018B000044BDB681B0A03F007031846BD4680BCD7
:1018C000704700BF00ED00E080B483B000AF034676
:1018D000FB7197F90730002B0BDBFB7903F01F023C
:1018E000064997F907305B09012000FA02F241F836
:1018F000232000BF0C37BD4680BC704700E100E0EC
:1019000080B483B000AF03463960FB7197F90730AC
:10191000002B0ADB3B68DAB20C4997F90730120159
:10192000D2B20B4483F800230AE03B68DAB20849DC
:10193000FB7903F00F03043B1201D2B20B441A7679
:1019400000BF0C37BD4680BC704700BF00E100E01F
:1019500000ED00E080B489B000AFF860B9607A6053
:10196000FB6803F00703FB61FB69C3F10703042B6A
:1019700028BF0423BB61FB690433062B02D9FB6932
:10198000033B00E000237B614FF0FF32BB6902FAAA
:1019900003F3DA43BB681A407B699A404FF0FF318A
:1019A0007B6901FA03F3D9437B680B401343184664
:1019B0002437BD4680BC704780B582B000AF7860E8
:1019C0007868FFF74FFF00BF0837BD4680BD80B580
:1019D00086B000AF0346B9607A60FB7300237B6179
:1019E000FFF764FF78617A68B9687869FFF7B2FF3A
:1019F000024697F90F3011461846FFF781FF00BFE6
:101A00001837BD4680BD80B582B000AF0346FB717C
:101A100097F907301846FFF757FF00BF0837BD4654
:101A200080BD000080B48BB000AF786039600023C7
:101A30007B6200233B6269E101227B6A02FA03F3C5
:101A4000FB613B681B68FA691340BB61BA69FB69BB
:101A50009A4240F058813B685B689A4A93425ED054
:101A6000984A934275D8984A934258D0964A9342DE
:101A70006FD8964A934252D0944A934269D8944A76
:101A800093424CD0924A934263D8924A934246D0B2
:101A9000904A93425DD8122B2AD8122B59D801A212
:101AA00052F823F01F1B0008F91A00080B1B00084E
:101AB0004D1B0008531B0008531B0008531B000854
:101AC000531B0008531B0008531B0008531B00083E
:101AD000531B0008531B0008531B0008531B00082E
:101AE000531B0008531B0008011B0008151B0008AE
:101AF000794A934213D02CE03B68DB683B6229E0D3
:101B00003B68DB6804333B6224E03B68DB680833F6
:101B10003B621FE03B68DB680C333B621AE03B68CA
:101B20009B68002B02D104233B6213E03B689B6857
:101B3000012B05D108233B627B68FA691A6109E031
:101B400008233B627B68FA695A6103E000233B6229
:101B500000E000BFBB69FF2B01D87B6801E07B6818
:101B600004337B61BB69FF2B02D87B6A9B0002E0D8
:101B70007B6A083B9B003B617B691A680F213B69CC
:101B800001FA03F3DB431A40396A3B6901FA03F3B4
:101B90001A437B691A603B685B6803F08053002B33
:101BA00000F0B1804D4B9B694C4A43F001039361B7
:101BB0004A4B9B6903F00103BB60BB68484A7B6AE0
:101BC0009B08023352F82330FB607B6A03F0030367
:101BD0009B000F2202FA03F3DB43FA681340FB6019
:101BE0007B68404A934213D07B683F4A93420DD0B2
:101BF0007B683E4A934207D07B683D4A934201D1BD
:101C0000032306E0042304E0022302E0012300E0B2
:101C100000237A6A02F0030292009340FA681343A9
:101C2000FB602F497B6A9B080233FA6841F8232046
:101C30003B685B6803F48033002B06D02D4B1A6899
:101C40002C49BB6913430B6006E02A4B1A68BB6939
:101C5000DB43284913400B603B685B6803F40033A7
:101C6000002B06D0234B5A682249BB6913434B60B3
:101C700006E0204B5A68BB69DB431E4913404B60AA
:101C80003B685B6803F48013002B06D0194B9A68FD
:101C90001849BB6913438B6006E0164B9A68BB6911
:101CA000DB43144913408B603B685B6803F400130B
:101CB000002B21D00F4BDA680E49BB691343CB6070
:101CC00021E000BF0000321000003110000022109F
:101CD000000021100000121000001110001002403E
:101CE0000000014000080140000C014000100140CC
:101CF00000140140000401400B4BDA68BB69DB4370
:101D000009491340CB607B6A01337B623B681A68E8
:101D10007B6A22FA03F3002B7FF48EAE00BF00BF74
:101D20002C37BD4680BC70470004014080B485B0AC
:101D300000AF78600B467B807B689A687B88134095
:101D4000002B02D00123FB7301E00023FB73FB7B1C
:101D500018461437BD4680BC704780B483B000AFCE
:101D600078600B467B8013467B707B78002B03D01A
:101D70007A887B681A6103E07B881A047B681A61A1
:101D800000BF0C37BD4680BC704780B485B000AF43
:101D900078600B467B807B68DB68FB607A88FB6839
:101DA00013401A04FB68D9437B880B401A437B68B5
:101DB0001A6100BF1437BD4680BC704780B586B03D
:101DC00000AF78607B68002B01D101236CE27B6857
:101DD0001B6803F00103002B00F08780924B5B68C7
:101DE00003F00C03042B0CD08F4B5B6803F00C0347
:101DF000082B12D18C4B5B6803F48033B3F5803F22
:101E00000BD1894B1B6803F40033002B6CD07B682B
:101E10005B68002B68D1012346E27B685B68B3F501
:101E2000803F06D1804B1B687F4A43F480331360A8
:101E30002EE07B685B68002B0CD17B4B1B687A4AD9
:101E400023F480331360784B1B68774A23F4802394
:101E500013601DE07B685B68B3F5A02F0CD1724B5B
:101E60001B68714A43F4802313606F4B1B686E4AF2
:101E700043F4803313600BE06B4B1B686A4A23F416
:101E800080331360684B1B68674A23F48023136018
:101E90007B685B68002B13D0FFF7A4FA386108E079
:101EA000FFF7A0FA02463B69D31A642B01D903233A
:101EB000FAE15D4B1B6803F40033002BF0D014E013
:101EC000FFF790FA386108E0FFF78CFA02463B69A9
:101ED000D31A642B01D90323E6E1534B1B6803F4A7
:101EE0000033002BF0D100E000BF7B681B6803F0DB
:101EF0000203002B63D04C4B5B6803F00C03002BF8
:101F00000BD0494B5B6803F00C03082B1CD1464BEC
:101F10005B6803F48033002B16D1434B1B6803F03E
:101F20000203002B05D07B681B69012B01D0012324
:101F3000BAE13D4B1B6823F0F8027B685B69DB006C
:101F4000394913430B603AE07B681B69002B20D0B2
:101F5000364B01221A60FFF745FA386108E0FFF7B7
:101F600041FA02463B69D31A022B01D903239BE1B4
:101F70002D4B1B6803F00203002BF0D02A4B1B688B
:101F800023F0F8027B685B69DB00274913430B6091
:101F900015E0264B00221A60FFF724FA386108E0AA
:101FA000FFF720FA02463B69D31A022B01D903231B
:101FB0007AE11D4B1B6803F00203002BF0D17B6814
:101FC0001B6803F00803002B3AD07B689B69002B49
:101FD00019D0174B01221A60FFF704FA386108E0A4
:101FE000FFF700FA02463B69D31A022B01D90323FB
:101FF0005AE10D4B5B6A03F00203002BF0D0012085
:1020000000F008FB1CE00A4B00221A60FFF7EAF917
:1020100038610FE0FFF7E6F902463B69D31A022B5D
:1020200008D9032340E100BF0010024000004242F3
:10203000800442429E4B5B6A03F00203002BE9D10D
:102040007B681B6803F00403002B00F0A6800023CC
:10205000FB75974BDB6903F08053002B0DD1944B3C
:10206000DB69934A43F08053D361914BDB6903F002
:102070008053BB60BB680123FB758E4B1B6803F468
:102080008073002B18D18B4B1B688A4A43F48073F2
:102090001360FFF7A7F9386108E0FFF7A3F90246DC
:1020A0003B69D31A642B01D90323FDE0814B1B68E4
:1020B00003F48073002BF0D07B68DB68012B06D122
:1020C0007B4B1B6A7A4A43F0010313622DE07B6865
:1020D000DB68002B0CD1764B1B6A754A23F0010399
:1020E0001362734B1B6A724A23F0040313621CE0F1
:1020F0007B68DB68052B0CD16D4B1B6A6C4A43F087
:10210000040313626A4B1B6A694A43F001031362BA
:102110000BE0674B1B6A664A23F001031362644BB2
:102120001B6A634A23F0040313627B68DB68002B9D
:1021300015D0FFF757F938610AE0FFF753F9024667
:102140003B69D31A41F28832934201D90323ABE0B1
:10215000574B1B6A03F00203002BEED014E0FFF78D
:1021600041F938610AE0FFF73DF902463B69D31AAD
:1021700041F28832934201D9032395E04C4B1B6A0C
:1021800003F00203002BEED1FB7D012B05D1484B60
:10219000DB69474A23F08053D3617B68DB69002BFE
:1021A00000F08180424B5B6803F00C03082B61D088
:1021B0007B68DB69022B46D13F4B00221A60FFF798
:1021C00011F9386108E0FFF70DF902463B69D31AAF
:1021D000022B01D9032367E0354B1B6803F0007322
:1021E000002BF0D17B681B6AB3F5803F08D1304BE0
:1021F0005B6823F400327B689B682D4913434B6076
:102200002B4B5B6823F474127B68196A7B685B6AEA
:102210000B43274913434B60274B01221A60FFF7FA
:10222000E1F8386108E0FFF7DDF802463B69D31AB0
:10223000022B01D9032337E01D4B1B6803F0007309
:10224000002BF0D02FE01C4B00221A60FFF7CAF8D9
:10225000386108E0FFF7C6F802463B69D31A022B43
:1022600001D9032320E0124B1B6803F00073002BFD
:10227000F0D118E07B68DB69012B01D1012313E069
:102280000B4B5B68FB60FB6803F480327B681B6A66
:102290009A4206D1FB6803F470127B685B6A9A422B
:1022A00001D0012300E0002318461837BD4680BD49
:1022B00000100240007000406000424280B584B0CF
:1022C00000AF786039607B68002B01D10123D0E03A
:1022D0006A4B1B6803F007033A689A4210D9674BB0
:1022E0001B6823F0070265493B6813430B60634B8F
:1022F0001B6803F007033A689A4201D00123B8E053
:102300007B681B6803F00203002B20D07B681B68EE
:1023100003F00403002B05D0594B5B68584A43F483
:10232000E06353607B681B6803F00803002B05D053
:10233000534B5B68524A43F460535360504B5B68A5
:1023400023F0F0027B689B684D4913434B607B6828
:102350001B6803F00103002B40D07B685B68012BF6
:1023600007D1474B1B6803F40033002B15D1012321
:102370007FE07B685B68022B07D1414B1B6803F051
:102380000073002B09D1012373E03D4B1B6803F060
:102390000203002B01D101236BE0394B5B6823F072
:1023A00003027B685B68364913434B60FFF71AF8FA
:1023B000F8600AE0FFF716F80246FB68D31A41F20C
:1023C0008832934201D9032353E02D4B5B6803F01D
:1023D0000C027B685B689B009A42EBD1274B1B6821
:1023E00003F007033A689A4210D2244B1B6823F08B
:1023F000070222493B6813430B60204B1B6803F024
:1024000007033A689A4201D0012332E07B681B68D7
:1024100003F00403002B08D0194B5B6823F4E0623F
:102420007B68DB68164913434B607B681B6803F0CD
:102430000803002B09D0124B5B6823F460527B68C1
:102440001B69DB000E4913434B6000F021F8024684
:102450000B4B5B681B0903F00F030A49CB5C22FAA4
:1024600003F3094A1360094B1B681846FEF704FE84
:10247000002318461037BD4680BD00BF0020024033
:1024800000100240C43D00080000002004000020AD
:1024900090B48AB000AF2A4B3C1D0FCB84E80F00EC
:1024A00040F201233B800023FB610023BB6100233A
:1024B0007B6200237B6100233B62224B5B68FB61F4
:1024C000FB6903F00C03042B02D0082B03D02DE092
:1024D0001D4B3B622DE0FB699B0C03F00F0307F1E2
:1024E0002802134413F8243C7B61FB6903F4803316
:1024F000002B13D0134B5B685B0C03F0010307F157
:102500002802134413F8283CBB617B690E4A02FB86
:1025100003F2BB69B2FBF3F37B6204E07B690B4A15
:1025200002FB03F37B627B6A3B6202E0064B3B6289
:1025300000BF3B6A18462837BD4690BC704700BFB5
:10254000B43D00080010024000127A0000093D006E
:1025500080B400AF024B1B681846BD4680BC704774
:102560000000002080B500AFFFF7F2FF0246054BE8
:102570005B681B0A03F007030349CB5C22FA03F3F1
:10258000184680BD00100240D43D000880B500AF61
:10259000FFF7DEFF0246054B5B68DB0A03F007032B
:1025A0000349CB5C22FA03F3184680BD00100240B9
:1025B000D43D000880B483B000AF786039607B6898
:1025C0000F221A60114B5B6803F003027B685A60AC
:1025D0000E4B5B6803F0F0027B689A600B4B5B6804
:1025E00003F4E0627B68DA60084B5B68DB0803F4A5
:1025F000E0627B681A61064B1B6803F007023B68C8
:102600001A6000BF0C37BD4680BC70470010024006
:102610000020024080B485B000AF78600A4B1B6890
:102620000A4AA2FB03235B0A7A6802FB03F3FB60FE
:1026300000BFFB685A1EFA60002BF9D100BF00BF33
:102640001437BD4680BC704700000020D34D621097
:1026500080B586B000AF786000233B610023FB604B
:102660007B681B6803F00103002B7DD00023FB7502
:102670004F4BDB6903F08053002B0DD14C4BDB69D2
:102680004B4A43F08053D361494BDB6903F08053DD
:10269000BB60BB680123FB75464B1B6803F480736A
:1026A000002B18D1434B1B68424A43F480731360DC
:1026B000FEF798FE386108E0FEF794FE02463B699B
:1026C000D31A642B01D903236DE03A4B1B6803F442
:1026D0008073002BF0D0364B1B6A03F44073FB6011
:1026E000FB68002B2ED07B685B6803F44073FA68AC
:1026F0009A4227D02E4B1B6A23F44073FB602E4B6B
:1027000001221A602C4B00221A60294AFB681362CE
:10271000FB6803F00103002B14D0FEF763FE386161
:102720000AE0FEF75FFE02463B69D31A41F28832A7
:10273000934201D9032336E01D4B1B6A03F00203C9
:10274000002BEED01A4B1B6A23F440727B685B6847
:10275000174913430B62FB7D012B05D1144BDB6939
:10276000134A23F08053D3617B681B6803F0020394
:10277000002B08D00E4B5B6823F440427B689B68BB
:102780000B4913434B607B681B6803F01003002B5D
:1027900008D0074B5B6823F480027B68DB68044940
:1027A00013434B60002318461837BD4680BD00BF59
:1027B00000100240007000404004424280B582B0E8
:1027C00000AF78607B68002B01D1012376E07B6845
:1027D0005B6A002B08D17B685B68B3F5827F09D008
:1027E0007B680022DA6105E07B6800221A617B6861
:1027F00000225A617B6800229A627B6893F851300C
:10280000DBB2002B06D17B68002283F85020786869
:10281000FEF74CFB7B68022283F851207B681B6823
:102820001A687B681B6822F040021A607B685B684C
:1028300003F482727B689B6803F404431A437B6849
:10284000DB6803F400631A437B681B6903F002032F
:102850001A437B685B6903F001031A437B689B6939
:1028600003F400731A437B68DB6903F038031A43EF
:102870007B681B6A03F0800342EA03017B689B6A62
:1028800003F400527B681B680A431A607B689B69EB
:102890001A0C7B681B6802F004025A607B681B6894
:1028A000DA697B681B6822F40062DA617B680022C7
:1028B0005A657B68012283F85120002318460837A7
:1028C000BD4680BD80B582B000AF78607B68002BCC
:1028D00001D1012341E07B6893F83D30DBB2002B4E
:1028E00006D17B68002283F83C207868FEF728FB3D
:1028F0007B68022283F83D207B681A687B6804337A
:102900001946104600F0BAFA7B68012283F8462087
:102910007B68012283F83E207B68012283F83F20F8
:102920007B68012283F840207B68012283F84120E4
:102930007B68012283F842207B68012283F84320D0
:102940007B68012283F844207B68012283F84520BC
:102950007B68012283F83D20002318460837BD46D6
:1029600080BD000080B485B000AF78607B6893F8CC
:102970003D30DBB2012B01D0012332E07B68022223
:1029800083F83D207B681B68184A93420ED07B6811
:102990001B68B3F1804F09D07B681B68144A9342CF
:1029A00004D07B681B68134A934211D17B681B6873
:1029B0009B6803F00703FB60FB68062B10D07B6865
:1029C0001B681A687B681B6842F001021A6007E006
:1029D0007B681B681A687B681B6842F001021A60FA
:1029E000002318461437BD4680BC7047002C0140B8
:1029F000000400400008004080B485B000AF78605B
:102A00007B6893F83D30DBB2012B01D001233AE023
:102A10007B68022283F83D207B681B68DA687B684C
:102A20001B6842F00102DA607B681B68184A934217
:102A30000ED07B681B68B3F1804F09D07B681B68A0
:102A4000144A934204D07B681B68134A934211D105
:102A50007B681B689B6803F00703FB60FB68062B21
:102A600010D07B681B681A687B681B6842F0010203
:102A70001A6007E07B681B681A687B681B6842F075
:102A800001021A60002318461437BD4680BC704707
:102A9000002C0140000400400008004080B582B0D6
:102AA00000AF78607B681B681B6903F00203022B90
:102AB00022D17B681B68DB6803F00203022B1BD169
:102AC0007B681B686FF002021A617B6801221A772B
:102AD0007B681B689B6903F00303002B03D07868B5
:102AE00000F0B1F905E0786800F0A4F9786800F02A
:102AF000B3F97B6800221A777B681B681B6903F0B7
:102B00000403042B22D17B681B68DB6803F00403F9
:102B1000042B1BD17B681B686FF004021A617B6871
:102B200002221A777B681B689B6903F44073002BB1
:102B300003D0786800F087F905E0786800F07AF94A
:102B4000786800F089F97B6800221A777B681B6837
:102B50001B6903F00803082B22D17B681B68DB6824
:102B600003F00803082B1BD17B681B686FF0080279
:102B70001A617B6804221A777B681B68DB6903F0A3
:102B80000303002B03D0786800F05DF905E0786856
:102B900000F050F9786800F05FF97B6800221A773E
:102BA0007B681B681B6903F01003102B22D17B6824
:102BB0001B68DB6803F01003102B1BD17B681B68BC
:102BC0006FF010021A617B6808221A777B681B6815
:102BD000DB6903F44073002B03D0786800F033F90D
:102BE00005E0786800F026F9786800F035F97B6830
:102BF00000221A777B681B681B6903F00103012B15
:102C00000ED17B681B68DB6803F00103012B07D141
:102C10007B681B686FF001021A617868FEF7C0F8E4
:102C20007B681B681B6903F08003802B0ED17B68D7
:102C30001B68DB6803F08003802B07D17B681B686F
:102C40006FF080021A61786800F077FA7B681B6881
:102C50001B6903F04003402B0ED17B681B68DB68C7
:102C600003F04003402B07D17B681B686FF04002E4
:102C70001A61786800F0F9F87B681B681B6903F03B
:102C80002003202B0ED17B681B68DB6803F0200338
:102C9000202B07D17B681B686FF020021A617868CF
:102CA00000F042FA00BF0837BD4680BD80B584B051
:102CB00000AF786039607B6893F83C30012B01D11C
:102CC0000223B3E07B68012283F83C207B68022268
:102CD00083F83D207B681B689B68FB60FB6823F0E2
:102CE0007703FB60FB6823F47F43FB607B681B6812
:102CF000FA689A603B681B68B3F5005F3ED0B3F595
:102D0000005F00F28780B3F5805F00F08580B3F547
:102D1000805F7FD8702B1AD0702B7BD8602B50D05F
:102D2000602B77D8502B3CD0502B73D8402B58D0E9
:102D3000402B6FD8302B64D0302B6BD8202B60D039
:102D4000202B67D8002B5CD0102B5AD062E07B6818
:102D500018683B6899683B685A683B68DB6800F014
:102D600066F97B681B689B68FB60FB6843F0770330
:102D7000FB607B681B68FA689A604EE07B681868A5
:102D80003B6899683B685A683B68DB6800F04FF91C
:102D90007B681B689A687B681B6842F480429A6073
:102DA0003BE07B6818683B6859683B68DB681A46FB
:102DB00000F0C6F87B681B685021184600F01DF92A
:102DC0002BE07B6818683B6859683B68DB681A46EB
:102DD00000F0E4F87B681B686021184600F00DF9EC
:102DE0001BE07B6818683B6859683B68DB681A46DB
:102DF00000F0A6F87B681B684021184600F0FDF83B
:102E00000BE07B681A683B681B681946104600F0A7
:102E1000F4F802E000BF00E000BF7B68012283F805
:102E20003D207B68002283F83C20002318461037A1
:102E3000BD4680BD80B483B000AF786000BF0C3762
:102E4000BD4680BC704780B483B000AF786000BFDF
:102E50000C37BD4680BC704780B483B000AF78604B
:102E600000BF0C37BD4680BC704780B483B000AF54
:102E7000786000BF0C37BD4680BC704780B485B019
:102E800000AF786039607B681B68FB607B68294A0B
:102E900093420BD07B68B3F1804F07D07B68264A02
:102EA000934203D07B68254A934208D1FB6823F004
:102EB0007003FB603B685B68FA681343FB607B68E8
:102EC0001C4A93420BD07B68B3F1804F07D07B68DC
:102ED000194A934203D07B68184A934208D1FB6891
:102EE00023F44073FB603B68DB68FA681343FB60C4
:102EF000FB6823F080023B685B691343FB607B68DF
:102F0000FA681A603B689A687B68DA623B681A68FC
:102F10007B689A627B68074A934203D13B681A69CF
:102F20007B681A637B6801225A6100BF1437BD4673
:102F300080BC7047002C01400004004000080040A5
:102F400080B487B000AFF860B9607A60FB681B6A34
:102F50007B61FB681B6A23F00102FB681A62FB6855
:102F60009B693B613B6923F0F0033B617B681B017C
:102F70003A6913433B617B6923F00A037B617A69F9
:102F8000BB6813437B61FB683A699A61FB687A69A5
:102F90001A6200BF1C37BD4680BC704780B487B042
:102FA00000AFF860B9607A60FB681B6A23F010021A
:102FB000FB681A62FB689B697B61FB681B6A3B616B
:102FC0007B6923F470437B617B681B037A6913433D
:102FD0007B613B6923F0A0033B61BB681B013A693D
:102FE00013433B61FB687A699A61FB683A691A622C
:102FF00000BF1C37BD4680BC704780B485B000AFB1
:10300000786039607B689B68FB60FB6823F0700325
:10301000FB603A68FB68134343F00703FB607B687F
:10302000FA689A6000BF1437BD4680BC704780B410
:1030300087B000AFF860B9607A603B60FB689B685E
:103040007B617B6923F47F437B613B681A027B6869
:103050001A43BB6813437A6913437B61FB687A693F
:103060009A6000BF1C37BD4680BC704780B485B0F5
:1030700000AF786039607B6893F83C30012B01D158
:10308000022346E07B68012283F83C207B68022211
:1030900083F83D207B681B685B68FB607B681B686E
:1030A0009B68BB60FB6823F07003FB603B681B6898
:1030B000FA681343FB607B681B68FA685A607B6898
:1030C0001B68164A93420ED07B681B68B3F1804F91
:1030D00009D07B681B68124A934204D07B681B6846
:1030E000104A93420CD1BB6823F08003BB603B685D
:1030F0005B68BA681343BB607B681B68BA689A60F8
:103100007B68012283F83D207B68002283F83C2005
:10311000002318461437BD4680BC7047002C014080
:10312000000400400008004080B483B000AF786025
:1031300000BF0C37BD4680BC704780B483B000AF81
:10314000786000BF0C37BD4680BC704780B582B048
:1031500000AF78607B68002B01D101233FE07B68E2
:1031600093F83D30DBB2002B06D17B68002283F858
:103170003C207868FDF734FF7B68242283F83D20EB
:103180007B681B68DA687B681B6822F40052DA608F
:10319000786800F005F97B681B681A697B681B6812
:1031A00022F490421A617B681B685A697B681B682D
:1031B00022F02A025A617B681B68DA687B681B6808
:1031C00042F40052DA607B6800221A647B68202295
:1031D00083F83D207B68202283F83E200023184698
:1031E0000837BD4680BD80B58AB002AFF860B960CF
:1031F0003B601346FB8000237B61FB6893F83D3006
:10320000DBB2202B7CD1BB68002B02D0FB88002BCB
:1032100001D1012375E0FB6893F83C30012B01D10B
:1032200002236EE0FB68012283F83C20FB68002249
:103230001A64FB68212283F83D20FEF7D3F87861F9
:10324000FB68FA889A84FB68FA88DA84FB689B68D2
:10325000B3F5805F08D1FB681B69002B04D1002304
:10326000FB61BB68BB6103E0BB68FB610023BB6122
:10327000FB68002283F83C202AE03B6800937B69CE
:1032800000228021F86800F040F80346002B01D0AE
:10329000032336E0FB69002B0BD1BB691B881A4660
:1032A000FB681B68C2F308025A60BB690233BB614A
:1032B00007E0FB691A78FB681B685A60FB690133F9
:1032C000FB61FB68DB8C9BB2013B9AB2FB68DA8442
:1032D000FB68DB8C9BB2002BCFD13B6800937B69F2
:1032E00000224021F86800F010F80346002B01D0BE
:1032F000032306E0FB68202283F83D20002300E042
:10330000022318462037BD4680BD80B584B000AF8B
:10331000F860B9603B601346FB712CE0BB69B3F108
:10332000FF3F28D0BB69002B07D0FEF75BF80246B1
:103330003B68D31ABA699A421DD2FB681B68DA68E7
:10334000FB681B6822F4D072DA60FB681B685A695C
:10335000FB681B6822F001025A61FB68202283F897
:103360003D20FB68202283F83E20FB68002283F882
:103370003C2003230FE0FB681B681A68BB681340FE
:10338000BA689A420CBF01230023DBB21A46FB79CC
:103390009A42C3D0002318461037BD4680BD0000B6
:1033A00080B584B000AF78607B681B681B6923F42C
:1033B00040517B68DA687B681B680A431A617B6846
:1033C0009A687B681B691A437B685B691343BB601F
:1033D0007B681B68DB6823F4B05323F00C037A6826
:1033E0001268B9680B43D3607B681B685B6923F480
:1033F00040717B689A697B681B680A435A617B68E5
:103400001B682C4A934203D1FFF7C0F8F86002E032
:10341000FFF7A8F8F860FA6813469B0013449A0077
:103420001A447B685B689B00B2FBF3F3224AA2FB61
:1034300003235B091901FA6813469B0013449A00A1
:103440001A447B685B689B00B2FBF3F21A4BA3FB48
:1034500002035B09642000FB03F3D31A1B01323320
:10346000154AA2FB03235B0903F0F0031944FA6831
:1034700013469B0013449A001A447B685B689B00C8
:10348000B2FBF3F20C4BA3FB02035B09642000FBCD
:1034900003F3D31A1B013233074AA2FB03235B0950
:1034A00003F00F027B681B680A449A6000BF103764
:1034B000BD4680BD003801401F85EB51014B1868A7
:1034C000704700BF0C00002070B500260C4D0D4C5D
:1034D000641BA410A64209D100F05CFC00260A4D32
:1034E0000A4C641BA410A64205D170BD55F8043BDC
:1034F00098470136EEE755F8043B98470136F2E766
:10350000103E0008103E0008103E0008143E00085F
:1035100003460244934200D1704703F8011BF9E7C8
:103520000EB46FF0004100B59CB01DAB0290069048
:10353000079104910848094953F8042B0591006844
:1035400002A9019300F068F80022029B1A701CB0D7
:103550005DF804EB03B070470C0000200802FFFF89
:103560002DE9F0478E6882469E420C4690461F46E3
:1035700038D88A8912F4906F32D0256809690133EE
:10358000A5EB010965694B4405EB450505EBD575D0
:103590006D109D4238BF1D46530531D5294600F0B8
:1035A00053FB064650B90C234FF0FF30CAF80030E9
:1035B000A38943F04003A381BDE8F0874A4621690F
:1035C00000F0CEFAA38923F4906343F08003A38133
:1035D00026614E4426603E466561A5EB0905A5605F
:1035E000BE4200D93E4632464146206800F0C6FA47
:1035F000A36822689B1B32440020A3602260DBE7A3
:103600002A4600F07BFB06460028E1D1504621699E
:1036100000F0CEFAC7E700002DE9F04F98468B89FD
:1036200007461B060D4614469DB00ED50B6963B9BF
:10363000402100F009FB2860286120B90C233B6081
:103640004FF0FF30D1E040236B610023099320232A
:103650008DF8293030234FF00109CDF80C80DFF8C8
:10366000A4818DF82A3023469A4613F8012B0AB11B
:10367000252AF9D1BAEB040B0BD05B46224629462A
:103680003846FFF76DFF013000F0AA80099A5A44CE
:1036900009929AF80030002B00F0A28000234FF02E
:1036A000FF32CDE905230AF1010A049307938DF84F
:1036B00053301A935446052214F8011B514800F068
:1036C00041FA049AD8B9D00644BF20238DF853306C
:1036D000110744BF2B238DF853309AF800302A2B62
:1036E00015D0544600204FF00A0C079A214611F8D5
:1036F000013B303B092B4ED9B0B1079214E0A0EB4F
:10370000080309FA03F31343A2460493D2E7039B89
:10371000191D1B680391002BBBBF5B4242F00202E4
:1037200007930793B8BF049223782E2B0CD16378AC
:103730002A2B35D1039B02341A1D1B680392002BE0
:10374000B8BF4FF0FF330593DFF8C8A003225046FF
:10375000217800F0F7F940B14023A0EB0A0003FA0A
:1037600000F0049B01340343049314F8011B062268
:1037700025488DF8281000F0E5F9002838D0234BB3
:103780001BBB039B073323F0070308330393099BF9
:103790003344099367E70C4601200CFB0232A5E78E
:1037A00000234FF00A0C194601340593204610F807
:1037B000012B303A092A03D9002BC5D00591C3E764
:1037C000044601230CFB0121F0E703AB00932A46DA
:1037D00038460F4B04A9AFF30080421C0646D6D1F1
:1037E000AB895B063FF52CAF09981DB0BDE8F08FA3
:1037F00003AB00932A463846054B04A900F07CF839
:10380000EBE700BFDC3D0008E63D000800000000DB
:1038100061350008E23D00082DE9F047164699465B
:103820008A680B6907469342B8BF1346336091F824
:1038300043200C46DDF820800AB101333360236851
:10384000990642BF336802333360256815F00605D8
:1038500006D104F1190AE36832689B1AAB4228DCEE
:1038600094F84320131E226818BF012392062DD41A
:103870004946384604F14302C047013020D023684E
:10388000E56803F00603042B18BF002532684FF0EB
:103890000006A36808BFAD1A226908BF25EAE575CE
:1038A0009342C4BF9B1AED181A34B5421AD10020B6
:1038B00008E00123524649463846C047013003D14B
:1038C0004FF0FF30BDE8F0870135C4E73020E11844
:1038D00081F843005A1C94F845102244023382F8C0
:1038E0004310C5E70123224649463846C047013008
:1038F000E6D00136D9E700002DE9FF470C46277EC8
:103900009146782F80469A460C9904F1430207D8D5
:10391000622F0AD8002F00F0D980582F00F0A48021
:1039200004F1420684F842703AE0A7F16303152BD4
:10393000F6D801A050F823F091390008A539000805
:1039400021390008213900082139000821390008EF
:10395000A53900082139000821390008213900085B
:1039600021390008B33A0008D5390008953A000813
:103970002139000821390008D53A0008213900080A
:10398000D539000821390008213900089D3A00087E
:103990000B6804F142061A1D1B680A6084F8423065
:1039A0000123A4E0256808682E0600F104030AD567
:1039B00005680B60002D03DA2D236D4284F8433037
:1039C0000A235E4819E015F0400F05680B6018BF28
:1039D0002DB2EFE70B682568181D0860280601D591
:1039E0001D6802E06906FBD51D886F2F0CBF0823F8
:1039F0000A235248002184F843106668002EA8BFAD
:103A00002168A660A4BF21F0040121600DB9002E39
:103A10004DD01646B5FBF3F103FB1157C75D06F811
:103A2000017D2F46BB420D46F4D9082B0BD12368EC
:103A3000DF0708D5236961689942DEBF302306F8A5
:103A4000013C06F1FF36921B22614B46214640465F
:103A5000CDF800A003AAFFF7DFFE01304CD14FF0F4
:103A6000FF3004B0BDE8F087344884F845700E6834
:103A7000236856F8045B1F060E6014D5D90744BFAF
:103A800043F0200323601DB9236823F02003236043
:103A90001023AFE7236843F02003236078232848EE
:103AA00084F84530E3E75E0648BFADB2E6E7164668
:103AB000BBE70B6826681D1D60690D6035061B6835
:103AC00001D5186002E07106FBD518800023164668
:103AD0002361BAE70B681A1D0A601E680021304690
:103AE000626800F02FF808B1801B60606368236192
:103AF000002384F84330A8E732464946404623690C
:103B0000D0470130ABD023689B0713D4E068039BF8
:103B10009842B8BF1846A4E70123324649464046BA
:103B2000D04701309BD00135E36803995B1AAB4263
:103B3000F2DCEBE7002504F11906F5E7ED3D00089E
:103B4000FE3D0008034610B5C9B202449342184630
:103B500001D1002003E0047801338C42F6D110BD7E
:103B60000A44914200F1FF3300D1704710B511F8BB
:103B7000014B914203F8014FF9D110BD884210B5B5
:103B800001EB020402D98442234607D8431EA14216
:103B900008D011F8012B03F8012FF8E70146024481
:103BA0008A4200D110BD13F8014D02F8014DF7E72C
:103BB00038B50546002943D051F8043C0C1F002BB2
:103BC000B8BFE41800F0D0F81E4A1368104633B9A5
:103BD000636014602846BDE8384000F0CBB8A342CB
:103BE0000AD921686218934201BF1A685B685218AB
:103BF000226063600460EDE71A465B680BB1A34284
:103C0000FAD911685018A0420BD12068014450180D
:103C100083421160DED118685B6801441160536013
:103C2000D8E702D90C232B60D4E7206821188B42F7
:103C300001BF19685B680918216063605460C9E7B7
:103C400038BD00BF9C000020F8B5CD1C25F0030551
:103C500008350C2D38BF0C25002D064601DBA94286
:103C600003D90C2333600020F8BD00F07DF8214912
:103C70000A6814469CB9204F3B6823B92146304658
:103C800000F062F838602946304600F05DF8431CC9
:103C900023D10C233046336000F06CF8E3E723684F
:103CA0005B1B17D40B2B03D923601C44256004E055
:103CB0006368A2420CBF0B605360304600F05AF8B4
:103CC00004F10B00231D20F00700C21ACCD01B1AF0
:103CD000A350C9E722466468CCE7C41C24F003045F
:103CE000A042E3D0211A304600F02EF80130DDD199
:103CF000CFE700BF9C000020A0000020F8B50746D9
:103D000014460E4621B91146BDE8F840FFF79CBFA6
:103D100022B9FFF74DFF25462846F8BD00F030F8E0
:103D2000A0420FD221463846FFF78EFF05460028F5
:103D3000F2D031462246FFF713FF31463846FFF7EF
:103D400037FFE9E73546E7E738B50023054D044678
:103D500008462B60FDF718FA431C02D12B6803B10B
:103D6000236038BD5C020020014800F011B800BF9C
:103D700064020020014800F00CB800BF640200207B
:103D800051F8043C181F002BBCBF0B58C0187047DB
:103D900070477047F8B500BFF8BC08BC9E46704736
:0C3DA000F8B500BFF8BC08BC9E46704798
:103DAC002568750D0A0000000203040506070809C2
:103DBC000A0B0C0D0E0F101000000000000000008C
:103DCC0001020304060708090000000001020304B5
:103DDC00232D302B2000686C4C00656667454647E8
:103DEC00003031323334353637383941424344456B
:103DFC0046003031323334353637383961626364DA
:043E0C0065660000E7
:043E10003501000870
:043E14001101000890
:103E18000024F40010000000010000001000002041
:103E2800000000000000000000000000000000008A
:103E3800000000000000000000000000000000007A
:103E4800000000000000000000000000000000006A
:103E5800000000000000000000000000000000005A
:103E6800000000000000000000000000000000004A
:103E7800000000000000000000000000000000003A
:040000050800134993
:00000001FF
